{
  "_format": "hh-sol-artifact-1",
  "contractName": "MyEpicNFT",
  "sourceName": "contracts/MyEpicNFT.sol",
  "abi": [
    {
      "inputs": [],
      "stateMutability": "nonpayable",
      "type": "constructor"
    },
    {
      "anonymous": false,
      "inputs": [
        {
          "indexed": true,
          "internalType": "address",
          "name": "owner",
          "type": "address"
        },
        {
          "indexed": true,
          "internalType": "address",
          "name": "approved",
          "type": "address"
        },
        {
          "indexed": true,
          "internalType": "uint256",
          "name": "tokenId",
          "type": "uint256"
        }
      ],
      "name": "Approval",
      "type": "event"
    },
    {
      "anonymous": false,
      "inputs": [
        {
          "indexed": true,
          "internalType": "address",
          "name": "owner",
          "type": "address"
        },
        {
          "indexed": true,
          "internalType": "address",
          "name": "operator",
          "type": "address"
        },
        {
          "indexed": false,
          "internalType": "bool",
          "name": "approved",
          "type": "bool"
        }
      ],
      "name": "ApprovalForAll",
      "type": "event"
    },
    {
      "anonymous": false,
      "inputs": [
        {
          "indexed": false,
          "internalType": "address",
          "name": "sender",
          "type": "address"
        },
        {
          "indexed": false,
          "internalType": "uint256",
          "name": "tokenId",
          "type": "uint256"
        }
      ],
      "name": "NewEpicNFTMinted",
      "type": "event"
    },
    {
      "anonymous": false,
      "inputs": [
        {
          "indexed": true,
          "internalType": "address",
          "name": "from",
          "type": "address"
        },
        {
          "indexed": true,
          "internalType": "address",
          "name": "to",
          "type": "address"
        },
        {
          "indexed": true,
          "internalType": "uint256",
          "name": "tokenId",
          "type": "uint256"
        }
      ],
      "name": "Transfer",
      "type": "event"
    },
    {
      "inputs": [
        {
          "internalType": "address",
          "name": "to",
          "type": "address"
        },
        {
          "internalType": "uint256",
          "name": "tokenId",
          "type": "uint256"
        }
      ],
      "name": "approve",
      "outputs": [],
      "stateMutability": "nonpayable",
      "type": "function"
    },
    {
      "inputs": [
        {
          "internalType": "address",
          "name": "owner",
          "type": "address"
        }
      ],
      "name": "balanceOf",
      "outputs": [
        {
          "internalType": "uint256",
          "name": "",
          "type": "uint256"
        }
      ],
      "stateMutability": "view",
      "type": "function"
    },
    {
      "inputs": [
        {
          "internalType": "uint256",
          "name": "tokenId",
          "type": "uint256"
        }
      ],
      "name": "getApproved",
      "outputs": [
        {
          "internalType": "address",
          "name": "",
          "type": "address"
        }
      ],
      "stateMutability": "view",
      "type": "function"
    },
    {
      "inputs": [],
      "name": "getMintLimit",
      "outputs": [
        {
          "internalType": "uint256",
          "name": "",
          "type": "uint256"
        }
      ],
      "stateMutability": "view",
      "type": "function"
    },
    {
      "inputs": [],
      "name": "getMintedNFTs",
      "outputs": [
        {
          "internalType": "uint256",
          "name": "",
          "type": "uint256"
        }
      ],
      "stateMutability": "view",
      "type": "function"
    },
    {
      "inputs": [
        {
          "internalType": "address",
          "name": "owner",
          "type": "address"
        },
        {
          "internalType": "address",
          "name": "operator",
          "type": "address"
        }
      ],
      "name": "isApprovedForAll",
      "outputs": [
        {
          "internalType": "bool",
          "name": "",
          "type": "bool"
        }
      ],
      "stateMutability": "view",
      "type": "function"
    },
    {
      "inputs": [],
      "name": "makeAnEpicNFT",
      "outputs": [],
      "stateMutability": "nonpayable",
      "type": "function"
    },
    {
      "inputs": [],
      "name": "name",
      "outputs": [
        {
          "internalType": "string",
          "name": "",
          "type": "string"
        }
      ],
      "stateMutability": "view",
      "type": "function"
    },
    {
      "inputs": [
        {
          "internalType": "uint256",
          "name": "tokenId",
          "type": "uint256"
        }
      ],
      "name": "ownerOf",
      "outputs": [
        {
          "internalType": "address",
          "name": "",
          "type": "address"
        }
      ],
      "stateMutability": "view",
      "type": "function"
    },
    {
      "inputs": [
        {
          "internalType": "uint256",
          "name": "tokenId",
          "type": "uint256"
        },
        {
          "internalType": "string[]",
          "name": "wordSet",
          "type": "string[]"
        }
      ],
      "name": "pickRandom",
      "outputs": [
        {
          "internalType": "string",
          "name": "",
          "type": "string"
        }
      ],
      "stateMutability": "pure",
      "type": "function"
    },
    {
      "inputs": [
        {
          "internalType": "address",
          "name": "from",
          "type": "address"
        },
        {
          "internalType": "address",
          "name": "to",
          "type": "address"
        },
        {
          "internalType": "uint256",
          "name": "tokenId",
          "type": "uint256"
        }
      ],
      "name": "safeTransferFrom",
      "outputs": [],
      "stateMutability": "nonpayable",
      "type": "function"
    },
    {
      "inputs": [
        {
          "internalType": "address",
          "name": "from",
          "type": "address"
        },
        {
          "internalType": "address",
          "name": "to",
          "type": "address"
        },
        {
          "internalType": "uint256",
          "name": "tokenId",
          "type": "uint256"
        },
        {
          "internalType": "bytes",
          "name": "_data",
          "type": "bytes"
        }
      ],
      "name": "safeTransferFrom",
      "outputs": [],
      "stateMutability": "nonpayable",
      "type": "function"
    },
    {
      "inputs": [
        {
          "internalType": "address",
          "name": "operator",
          "type": "address"
        },
        {
          "internalType": "bool",
          "name": "approved",
          "type": "bool"
        }
      ],
      "name": "setApprovalForAll",
      "outputs": [],
      "stateMutability": "nonpayable",
      "type": "function"
    },
    {
      "inputs": [
        {
          "internalType": "bytes4",
          "name": "interfaceId",
          "type": "bytes4"
        }
      ],
      "name": "supportsInterface",
      "outputs": [
        {
          "internalType": "bool",
          "name": "",
          "type": "bool"
        }
      ],
      "stateMutability": "view",
      "type": "function"
    },
    {
      "inputs": [],
      "name": "symbol",
      "outputs": [
        {
          "internalType": "string",
          "name": "",
          "type": "string"
        }
      ],
      "stateMutability": "view",
      "type": "function"
    },
    {
      "inputs": [
        {
          "internalType": "uint256",
          "name": "tokenId",
          "type": "uint256"
        }
      ],
      "name": "tokenURI",
      "outputs": [
        {
          "internalType": "string",
          "name": "",
          "type": "string"
        }
      ],
      "stateMutability": "view",
      "type": "function"
    },
    {
      "inputs": [
        {
          "internalType": "address",
          "name": "from",
          "type": "address"
        },
        {
          "internalType": "address",
          "name": "to",
          "type": "address"
        },
        {
          "internalType": "uint256",
          "name": "tokenId",
          "type": "uint256"
        }
      ],
      "name": "transferFrom",
      "outputs": [],
      "stateMutability": "nonpayable",
      "type": "function"
    }
  ],
  "bytecode": "0x608060405260405180610100016040528060d3815260200162004dd060d39139600890805190602001906200003692919062000e2d565b5060405180608001604052806057815260200162004ea360579139600990805190602001906200006892919062000e2d565b50604051806101e001604052806040518060400160405280600581526020017f436865617400000000000000000000000000000000000000000000000000000081525081526020016040518060400160405280600281526020017f536f00000000000000000000000000000000000000000000000000000000000081525081526020016040518060400160405280600a81526020017f4d6f7469766174696f6e0000000000000000000000000000000000000000000081525081526020016040518060400160405280600981526020017f5472616e736c617465000000000000000000000000000000000000000000000081525081526020016040518060400160405280600b81526020017f496e746567726174696f6e00000000000000000000000000000000000000000081525081526020016040518060400160405280600781526020017f5265766976616c0000000000000000000000000000000000000000000000000081525081526020016040518060400160405280600a81526020017f4368617576696e6973740000000000000000000000000000000000000000000081525081526020016040518060400160405280600481526020017f547562650000000000000000000000000000000000000000000000000000000081525081526020016040518060400160405280600781526020017f50617261646f780000000000000000000000000000000000000000000000000081525081526020016040518060400160405280600a81526020017f466f756e646174696f6e0000000000000000000000000000000000000000000081525081526020016040518060400160405280600681526020017f426f756e6365000000000000000000000000000000000000000000000000000081525081526020016040518060400160405280600481526020017f546f6e650000000000000000000000000000000000000000000000000000000081525081526020016040518060400160405280600881526020017f4172726f67616e7400000000000000000000000000000000000000000000000081525081526020016040518060400160405280600781526020017f5761726e696e670000000000000000000000000000000000000000000000000081525081526020016040518060400160405280600581526020017f4177617264000000000000000000000000000000000000000000000000000000815250815250600a90600f620003fa92919062000ebe565b50604051806101e001604052806040518060400160405280600981526020017f4368656d6973747279000000000000000000000000000000000000000000000081525081526020016040518060400160405280600981526020017f42656175746966756c000000000000000000000000000000000000000000000081525081526020016040518060400160405280600781526020017f50726f647563650000000000000000000000000000000000000000000000000081525081526020016040518060400160405280600481526020017f546f73730000000000000000000000000000000000000000000000000000000081525081526020016040518060400160405280600881526020017f4a7564676d656e7400000000000000000000000000000000000000000000000081525081526020016040518060400160405280600681526020017f4c6573736f6e000000000000000000000000000000000000000000000000000081525081526020016040518060400160405280600481526020017f47616d650000000000000000000000000000000000000000000000000000000081525081526020016040518060400160405280600a81526020017f5065646573747269616e0000000000000000000000000000000000000000000081525081526020016040518060400160405280600881526020017f46656d696e696e6500000000000000000000000000000000000000000000000081525081526020016040518060400160405280600581526020017f4561676c6500000000000000000000000000000000000000000000000000000081525081526020016040518060400160405280600981526020017f4d616368696e657279000000000000000000000000000000000000000000000081525081526020016040518060400160405280600881526020017f5374616e6461726400000000000000000000000000000000000000000000000081525081526020016040518060400160405280600881526020017f4164646974696f6e00000000000000000000000000000000000000000000000081525081526020016040518060400160405280600481526020017f4c6f6e670000000000000000000000000000000000000000000000000000000081525081526020016040518060400160405280600481526020017f506f737400000000000000000000000000000000000000000000000000000000815250815250600b90600f6200078c92919062000ebe565b50604051806101e001604052806040518060400160405280600781526020017f4f7665726561740000000000000000000000000000000000000000000000000081525081526020016040518060400160405280600a81526020017f456e746875736961736d0000000000000000000000000000000000000000000081525081526020016040518060400160405280600481526020017f536f61720000000000000000000000000000000000000000000000000000000081525081526020016040518060400160405280600781526020017f4578636c7564650000000000000000000000000000000000000000000000000081525081526020016040518060400160405280600581526020017f5269666c6500000000000000000000000000000000000000000000000000000081525081526020016040518060400160405280600581526020017f466f72676500000000000000000000000000000000000000000000000000000081525081526020016040518060400160405280600681526020017f526561646572000000000000000000000000000000000000000000000000000081525081526020016040518060400160405280600781526020017f4865616c7468790000000000000000000000000000000000000000000000000081525081526020016040518060400160405280600581526020017f576f72727900000000000000000000000000000000000000000000000000000081525081526020016040518060400160405280600581526020017f4d6172636800000000000000000000000000000000000000000000000000000081525081526020016040518060400160405280600981526020017f496e74656772697479000000000000000000000000000000000000000000000081525081526020016040518060400160405280600781526020017f486f72697a6f6e0000000000000000000000000000000000000000000000000081525081526020016040518060400160405280600a81526020017f5068696c6f736f7068790000000000000000000000000000000000000000000081525081526020016040518060400160405280600681526020017f54696d626572000000000000000000000000000000000000000000000000000081525081526020016040518060400160405280600481526020017f5261746500000000000000000000000000000000000000000000000000000000815250815250600c90600f62000b1e92919062000ebe565b506040518060a001604052806040518060400160405280600381526020017f726564000000000000000000000000000000000000000000000000000000000081525081526020016040518060400160405280600581526020017f626c61636b00000000000000000000000000000000000000000000000000000081525081526020016040518060400160405280600681526020017f79656c6c6f77000000000000000000000000000000000000000000000000000081525081526020016040518060400160405280600481526020017f626c75650000000000000000000000000000000000000000000000000000000081525081526020016040518060400160405280600581526020017f677265656e000000000000000000000000000000000000000000000000000000815250815250600d90600562000c6192919062000f25565b5034801562000c6f57600080fd5b506040518060400160405280600c81526020017f5371756172654e465478797a00000000000000000000000000000000000000008152506040518060400160405280600681526020017f5351554152450000000000000000000000000000000000000000000000000000815250816000908051906020019062000cf492919062000e2d565b50806001908051906020019062000d0d92919062000e2d565b50505062000d5b6040518060400160405280601e81526020017f54686973206973206d79204e465420636f6e74726163742e2057686f6121000081525062000d6160201b620011841760201c565b62001146565b62000e018160405160240162000d7891906200105a565b6040516020818303038152906040527f41304fac000000000000000000000000000000000000000000000000000000007bffffffffffffffffffffffffffffffffffffffffffffffffffffffff19166020820180517bffffffffffffffffffffffffffffffffffffffffffffffffffffffff838183161783525050505062000e0460201b60201c565b50565b60008151905060006a636f6e736f6c652e6c6f679050602083016000808483855afa5050505050565b82805462000e3b90620010d0565b90600052602060002090601f01602090048101928262000e5f576000855562000eab565b82601f1062000e7a57805160ff191683800117855562000eab565b8280016001018555821562000eab579182015b8281111562000eaa57825182559160200191906001019062000e8d565b5b50905062000eba919062000f8c565b5090565b82805482825590600052602060002090810192821562000f12579160200282015b8281111562000f1157825182908051906020019062000f0092919062000e2d565b509160200191906001019062000edf565b5b50905062000f21919062000fab565b5090565b82805482825590600052602060002090810192821562000f79579160200282015b8281111562000f7857825182908051906020019062000f6792919062000e2d565b509160200191906001019062000f46565b5b50905062000f88919062000fab565b5090565b5b8082111562000fa757600081600090555060010162000f8d565b5090565b5b8082111562000fcf576000818162000fc5919062000fd3565b5060010162000fac565b5090565b50805462000fe190620010d0565b6000825580601f1062000ff5575062001016565b601f01602090049060005260206000209081019062001015919062000f8c565b5b50565b600062001026826200107e565b62001032818562001089565b9350620010448185602086016200109a565b6200104f8162001135565b840191505092915050565b6000602082019050818103600083015262001076818462001019565b905092915050565b600081519050919050565b600082825260208201905092915050565b60005b83811015620010ba5780820151818401526020810190506200109d565b83811115620010ca576000848401525b50505050565b60006002820490506001821680620010e957607f821691505b602082108114156200110057620010ff62001106565b5b50919050565b7f4e487b7100000000000000000000000000000000000000000000000000000000600052602260045260246000fd5b6000601f19601f8301169050919050565b613c7a80620011566000396000f3fe608060405234801561001057600080fd5b506004361061010b5760003560e01c80636b5c6e07116100a2578063a22cb46511610071578063a22cb465146102cc578063b88d4fde146102e8578063c87b56dd14610304578063de9d132f14610334578063e985e9c51461033e5761010b565b80636b5c6e071461023057806370a082311461026057806377bf44ea1461029057806395d89b41146102ae5761010b565b806323b872dd116100de57806323b872dd146101aa57806342842e0e146101c657806356bda4a2146101e25780636352211e146102005761010b565b806301ffc9a71461011057806306fdde0314610140578063081812fc1461015e578063095ea7b31461018e575b600080fd5b61012a60048036038101906101259190612764565b61036e565b6040516101379190612e30565b60405180910390f35b610148610450565b6040516101559190612e4b565b60405180910390f35b610178600480360381019061017391906127b6565b6104e2565b6040516101859190612da0565b60405180910390f35b6101a860048036038101906101a39190612728565b610567565b005b6101c460048036038101906101bf9190612622565b61067f565b005b6101e060048036038101906101db9190612622565b6106df565b005b6101ea6106ff565b6040516101f79190613102565b60405180910390f35b61021a600480360381019061021591906127b6565b610708565b6040516102279190612da0565b60405180910390f35b61024a600480360381019061024591906127df565b6107ba565b6040516102579190612e4b565b60405180910390f35b61027a600480360381019061027591906125bd565b61088c565b6040516102879190613102565b60405180910390f35b610298610944565b6040516102a59190613102565b60405180910390f35b6102b6610955565b6040516102c39190612e4b565b60405180910390f35b6102e660048036038101906102e191906126ec565b6109e7565b005b61030260048036038101906102fd9190612671565b6109fd565b005b61031e600480360381019061031991906127b6565b610a5f565b60405161032b9190612e4b565b60405180910390f35b61033c610bb1565b005b610358600480360381019061035391906125e6565b6110f0565b6040516103659190612e30565b60405180910390f35b60007f80ac58cd000000000000000000000000000000000000000000000000000000007bffffffffffffffffffffffffffffffffffffffffffffffffffffffff1916827bffffffffffffffffffffffffffffffffffffffffffffffffffffffff1916148061043957507f5b5e139f000000000000000000000000000000000000000000000000000000007bffffffffffffffffffffffffffffffffffffffffffffffffffffffff1916827bffffffffffffffffffffffffffffffffffffffffffffffffffffffff1916145b8061044957506104488261121d565b5b9050919050565b60606000805461045f906133f3565b80601f016020809104026020016040519081016040528092919081815260200182805461048b906133f3565b80156104d85780601f106104ad576101008083540402835291602001916104d8565b820191906000526020600020905b8154815290600101906020018083116104bb57829003601f168201915b5050505050905090565b60006104ed82611287565b61052c576040517f08c379a000000000000000000000000000000000000000000000000000000000815260040161052390613062565b60405180910390fd5b6004600083815260200190815260200160002060009054906101000a900473ffffffffffffffffffffffffffffffffffffffff169050919050565b600061057282610708565b90508073ffffffffffffffffffffffffffffffffffffffff168373ffffffffffffffffffffffffffffffffffffffff1614156105e3576040517f08c379a00000000000000000000000000000000000000000000000000000000081526004016105da906130a2565b60405180910390fd5b8073ffffffffffffffffffffffffffffffffffffffff166106026112f3565b73ffffffffffffffffffffffffffffffffffffffff16148061063157506106308161062b6112f3565b6110f0565b5b610670576040517f08c379a000000000000000000000000000000000000000000000000000000000815260040161066790612fa2565b60405180910390fd5b61067a83836112fb565b505050565b61069061068a6112f3565b826113b4565b6106cf576040517f08c379a00000000000000000000000000000000000000000000000000000000081526004016106c6906130c2565b60405180910390fd5b6106da838383611492565b505050565b6106fa838383604051806020016040528060008152506109fd565b505050565b60006032905090565b6000806002600084815260200190815260200160002060009054906101000a900473ffffffffffffffffffffffffffffffffffffffff169050600073ffffffffffffffffffffffffffffffffffffffff168173ffffffffffffffffffffffffffffffffffffffff1614156107b1576040517f08c379a00000000000000000000000000000000000000000000000000000000081526004016107a890612fe2565b60405180910390fd5b80915050919050565b60606000610831836000815181106107fb577f4e487b7100000000000000000000000000000000000000000000000000000000600052603260045260246000fd5b602002602001015161080c866116f9565b60405160200161081d929190612c9b565b6040516020818303038152906040526118a6565b9050825181610840919061349f565b905082818151811061087b577f4e487b7100000000000000000000000000000000000000000000000000000000600052603260045260246000fd5b602002602001015191505092915050565b60008073ffffffffffffffffffffffffffffffffffffffff168273ffffffffffffffffffffffffffffffffffffffff1614156108fd576040517f08c379a00000000000000000000000000000000000000000000000000000000081526004016108f490612fc2565b60405180910390fd5b600360008373ffffffffffffffffffffffffffffffffffffffff1673ffffffffffffffffffffffffffffffffffffffff168152602001908152602001600020549050919050565b600061095060076118d9565b905090565b606060018054610964906133f3565b80601f0160208091040260200160405190810160405280929190818152602001828054610990906133f3565b80156109dd5780601f106109b2576101008083540402835291602001916109dd565b820191906000526020600020905b8154815290600101906020018083116109c057829003601f168201915b5050505050905090565b6109f96109f26112f3565b83836118e7565b5050565b610a0e610a086112f3565b836113b4565b610a4d576040517f08c379a0000000000000000000000000000000000000000000000000000000008152600401610a44906130c2565b60405180910390fd5b610a5984848484611a54565b50505050565b6060610a6a82611287565b610aa9576040517f08c379a0000000000000000000000000000000000000000000000000000000008152600401610aa090613042565b60405180910390fd5b6000600660008481526020019081526020016000208054610ac9906133f3565b80601f0160208091040260200160405190810160405280929190818152602001828054610af5906133f3565b8015610b425780601f10610b1757610100808354040283529160200191610b42565b820191906000526020600020905b815481529060010190602001808311610b2557829003601f168201915b505050505090506000610b53611ab0565b9050600081511415610b69578192505050610bac565b600082511115610b9e578082604051602001610b86929190612c9b565b60405160208183030381529060405292505050610bac565b610ba784611ac7565b925050505b919050565b6000610bbd60076118d9565b905060328110610c02576040517f08c379a0000000000000000000000000000000000000000000000000000000008152600401610bf9906130e2565b60405180910390fd5b6000610cdf82600a805480602002602001604051908101604052809291908181526020016000905b82821015610cd6578382906000526020600020018054610c49906133f3565b80601f0160208091040260200160405190810160405280929190818152602001828054610c75906133f3565b8015610cc25780601f10610c9757610100808354040283529160200191610cc2565b820191906000526020600020905b815481529060010190602001808311610ca557829003601f168201915b505050505081526020019060010190610c2a565b505050506107ba565b90506000610dbe83600b805480602002602001604051908101604052809291908181526020016000905b82821015610db5578382906000526020600020018054610d28906133f3565b80601f0160208091040260200160405190810160405280929190818152602001828054610d54906133f3565b8015610da15780601f10610d7657610100808354040283529160200191610da1565b820191906000526020600020905b815481529060010190602001808311610d8457829003601f168201915b505050505081526020019060010190610d09565b505050506107ba565b90506000610e9d84600c805480602002602001604051908101604052809291908181526020016000905b82821015610e94578382906000526020600020018054610e07906133f3565b80601f0160208091040260200160405190810160405280929190818152602001828054610e33906133f3565b8015610e805780601f10610e5557610100808354040283529160200191610e80565b820191906000526020600020905b815481529060010190602001808311610e6357829003601f168201915b505050505081526020019060010190610de8565b505050506107ba565b90506000610f7c85600d805480602002602001604051908101604052809291908181526020016000905b82821015610f73578382906000526020600020018054610ee6906133f3565b80601f0160208091040260200160405190810160405280929190818152602001828054610f12906133f3565b8015610f5f5780601f10610f3457610100808354040283529160200191610f5f565b820191906000526020600020905b815481529060010190602001808311610f4257829003601f168201915b505050505081526020019060010190610ec7565b505050506107ba565b90506000848484604051602001610f9593929190612cbf565b60405160208183030381529060405290506000600883600984604051602001610fc19493929190612cf0565b6040516020818303038152906040529050600061100683610fe184611b6e565b604051602001610ff2929190612d39565b604051602081830303815290604052611b6e565b905060008160405160200161101b9190612d7e565b604051602081830303815290604052905061106b6040518060400160405280600881526020017f66696e616c55524900000000000000000000000000000000000000000000000081525082611d2c565b611075338a611dc8565b61107f8982611de6565b6110a2604051806060016040528060258152602001613be0602591398a33611e5a565b6110ac6007611ef9565b7febb98688741ffa4c7589bf325de30cf7becb63de567842e1ccdb6cb949fdc82c338a6040516110dd929190612e07565b60405180910390a1505050505050505050565b6000600560008473ffffffffffffffffffffffffffffffffffffffff1673ffffffffffffffffffffffffffffffffffffffff16815260200190815260200160002060008373ffffffffffffffffffffffffffffffffffffffff1673ffffffffffffffffffffffffffffffffffffffff16815260200190815260200160002060009054906101000a900460ff16905092915050565b61121a816040516024016111989190612e4b565b6040516020818303038152906040527f41304fac000000000000000000000000000000000000000000000000000000007bffffffffffffffffffffffffffffffffffffffffffffffffffffffff19166020820180517bffffffffffffffffffffffffffffffffffffffffffffffffffffffff8381831617835250505050611f0f565b50565b60007f01ffc9a7000000000000000000000000000000000000000000000000000000007bffffffffffffffffffffffffffffffffffffffffffffffffffffffff1916827bffffffffffffffffffffffffffffffffffffffffffffffffffffffff1916149050919050565b60008073ffffffffffffffffffffffffffffffffffffffff166002600084815260200190815260200160002060009054906101000a900473ffffffffffffffffffffffffffffffffffffffff1673ffffffffffffffffffffffffffffffffffffffff1614159050919050565b600033905090565b816004600083815260200190815260200160002060006101000a81548173ffffffffffffffffffffffffffffffffffffffff021916908373ffffffffffffffffffffffffffffffffffffffff160217905550808273ffffffffffffffffffffffffffffffffffffffff1661136e83610708565b73ffffffffffffffffffffffffffffffffffffffff167f8c5be1e5ebec7d5bd14f71427d1e84f3dd0314c0f7b2291e5b200ac8c7c3b92560405160405180910390a45050565b60006113bf82611287565b6113fe576040517f08c379a00000000000000000000000000000000000000000000000000000000081526004016113f590612f82565b60405180910390fd5b600061140983610708565b90508073ffffffffffffffffffffffffffffffffffffffff168473ffffffffffffffffffffffffffffffffffffffff16148061147857508373ffffffffffffffffffffffffffffffffffffffff16611460846104e2565b73ffffffffffffffffffffffffffffffffffffffff16145b80611489575061148881856110f0565b5b91505092915050565b8273ffffffffffffffffffffffffffffffffffffffff166114b282610708565b73ffffffffffffffffffffffffffffffffffffffff1614611508576040517f08c379a00000000000000000000000000000000000000000000000000000000081526004016114ff90612f02565b60405180910390fd5b600073ffffffffffffffffffffffffffffffffffffffff168273ffffffffffffffffffffffffffffffffffffffff161415611578576040517f08c379a000000000000000000000000000000000000000000000000000000000815260040161156f90612f42565b60405180910390fd5b611583838383611f38565b61158e6000826112fb565b6001600360008573ffffffffffffffffffffffffffffffffffffffff1673ffffffffffffffffffffffffffffffffffffffff16815260200190815260200160002060008282546115de9190613309565b925050819055506001600360008473ffffffffffffffffffffffffffffffffffffffff1673ffffffffffffffffffffffffffffffffffffffff16815260200190815260200160002060008282546116359190613228565b92505081905550816002600083815260200190815260200160002060006101000a81548173ffffffffffffffffffffffffffffffffffffffff021916908373ffffffffffffffffffffffffffffffffffffffff160217905550808273ffffffffffffffffffffffffffffffffffffffff168473ffffffffffffffffffffffffffffffffffffffff167fddf252ad1be2c89b69c2b068fc378daa952ba7f163c4a11628f55a4df523b3ef60405160405180910390a46116f4838383611f3d565b505050565b60606000821415611741576040518060400160405280600181526020017f300000000000000000000000000000000000000000000000000000000000000081525090506118a1565b600082905060005b6000821461177357808061175c90613456565b915050600a8261176c919061327e565b9150611749565b60008167ffffffffffffffff8111156117b5577f4e487b7100000000000000000000000000000000000000000000000000000000600052604160045260246000fd5b6040519080825280601f01601f1916602001820160405280156117e75781602001600182028036833780820191505090505b5090505b6000851461189a576001826118009190613309565b9150600a8561180f919061349f565b603061181b9190613228565b60f81b818381518110611857577f4e487b7100000000000000000000000000000000000000000000000000000000600052603260045260246000fd5b60200101907effffffffffffffffffffffffffffffffffffffffffffffffffffffffffffff1916908160001a905350600a85611893919061327e565b94506117eb565b8093505050505b919050565b6000816040516020016118b99190612c84565b6040516020818303038152906040528051906020012060001c9050919050565b600081600001549050919050565b8173ffffffffffffffffffffffffffffffffffffffff168373ffffffffffffffffffffffffffffffffffffffff161415611956576040517f08c379a000000000000000000000000000000000000000000000000000000000815260040161194d90612f62565b60405180910390fd5b80600560008573ffffffffffffffffffffffffffffffffffffffff1673ffffffffffffffffffffffffffffffffffffffff16815260200190815260200160002060008473ffffffffffffffffffffffffffffffffffffffff1673ffffffffffffffffffffffffffffffffffffffff16815260200190815260200160002060006101000a81548160ff0219169083151502179055508173ffffffffffffffffffffffffffffffffffffffff168373ffffffffffffffffffffffffffffffffffffffff167f17307eab39ab6107e8899845ad3d59bd9653f200f220920489ca2b5937696c3183604051611a479190612e30565b60405180910390a3505050565b611a5f848484611492565b611a6b84848484611f42565b611aaa576040517f08c379a0000000000000000000000000000000000000000000000000000000008152600401611aa190612ee2565b60405180910390fd5b50505050565b606060405180602001604052806000815250905090565b6060611ad282611287565b611b11576040517f08c379a0000000000000000000000000000000000000000000000000000000008152600401611b0890613082565b60405180910390fd5b6000611b1b611ab0565b90506000815111611b3b5760405180602001604052806000815250611b66565b80611b45846116f9565b604051602001611b56929190612c9b565b6040516020818303038152906040525b915050919050565b60606000825190506000811415611b975760405180602001604052806000815250915050611d27565b60006003600283611ba89190613228565b611bb2919061327e565b6004611bbe91906132af565b90506000602082611bcf9190613228565b67ffffffffffffffff811115611c0e577f4e487b7100000000000000000000000000000000000000000000000000000000600052604160045260246000fd5b6040519080825280601f01601f191660200182016040528015611c405781602001600182028036833780820191505090505b5090506000604051806060016040528060408152602001613c05604091399050600181016020830160005b86811015611ce45760038101905062ffffff818a015116603f8160121c168401518060081b905060ff603f83600c1c1686015116810190508060081b905060ff603f8360061c1686015116810190508060081b905060ff603f831686015116810190508060e01b90508084526004840193505050611c6b565b506003860660018114611cfe5760028114611d0e57611d19565b613d3d60f01b6002830352611d19565b603d60f81b60018303525b508484525050819450505050505b919050565b611dc48282604051602401611d42929190612e6d565b6040516020818303038152906040527f4b5c4277000000000000000000000000000000000000000000000000000000007bffffffffffffffffffffffffffffffffffffffffffffffffffffffff19166020820180517bffffffffffffffffffffffffffffffffffffffffffffffffffffffff8381831617835250505050611f0f565b5050565b611de28282604051806020016040528060008152506120d9565b5050565b611def82611287565b611e2e576040517f08c379a0000000000000000000000000000000000000000000000000000000008152600401611e2590613002565b60405180910390fd5b80600660008481526020019081526020016000209080519060200190611e55929190612331565b505050565b611ef4838383604051602401611e7293929190612ea4565b6040516020818303038152906040527fe3849f79000000000000000000000000000000000000000000000000000000007bffffffffffffffffffffffffffffffffffffffffffffffffffffffff19166020820180517bffffffffffffffffffffffffffffffffffffffffffffffffffffffff8381831617835250505050611f0f565b505050565b6001816000016000828254019250508190555050565b60008151905060006a636f6e736f6c652e6c6f679050602083016000808483855afa5050505050565b505050565b505050565b6000611f638473ffffffffffffffffffffffffffffffffffffffff16612134565b156120cc578373ffffffffffffffffffffffffffffffffffffffff1663150b7a02611f8c6112f3565b8786866040518563ffffffff1660e01b8152600401611fae9493929190612dbb565b602060405180830381600087803b158015611fc857600080fd5b505af1925050508015611ff957506040513d601f19601f82011682018060405250810190611ff6919061278d565b60015b61207c573d8060008114612029576040519150601f19603f3d011682016040523d82523d6000602084013e61202e565b606091505b50600081511415612074576040517f08c379a000000000000000000000000000000000000000000000000000000000815260040161206b90612ee2565b60405180910390fd5b805181602001fd5b63150b7a0260e01b7bffffffffffffffffffffffffffffffffffffffffffffffffffffffff1916817bffffffffffffffffffffffffffffffffffffffffffffffffffffffff1916149150506120d1565b600190505b949350505050565b6120e38383612157565b6120f06000848484611f42565b61212f576040517f08c379a000000000000000000000000000000000000000000000000000000000815260040161212690612ee2565b60405180910390fd5b505050565b6000808273ffffffffffffffffffffffffffffffffffffffff163b119050919050565b600073ffffffffffffffffffffffffffffffffffffffff168273ffffffffffffffffffffffffffffffffffffffff1614156121c7576040517f08c379a00000000000000000000000000000000000000000000000000000000081526004016121be90613022565b60405180910390fd5b6121d081611287565b15612210576040517f08c379a000000000000000000000000000000000000000000000000000000000815260040161220790612f22565b60405180910390fd5b61221c60008383611f38565b6001600360008473ffffffffffffffffffffffffffffffffffffffff1673ffffffffffffffffffffffffffffffffffffffff168152602001908152602001600020600082825461226c9190613228565b92505081905550816002600083815260200190815260200160002060006101000a81548173ffffffffffffffffffffffffffffffffffffffff021916908373ffffffffffffffffffffffffffffffffffffffff160217905550808273ffffffffffffffffffffffffffffffffffffffff16600073ffffffffffffffffffffffffffffffffffffffff167fddf252ad1be2c89b69c2b068fc378daa952ba7f163c4a11628f55a4df523b3ef60405160405180910390a461232d60008383611f3d565b5050565b82805461233d906133f3565b90600052602060002090601f01602090048101928261235f57600085556123a6565b82601f1061237857805160ff19168380011785556123a6565b828001600101855582156123a6579182015b828111156123a557825182559160200191906001019061238a565b5b5090506123b391906123b7565b5090565b5b808211156123d05760008160009055506001016123b8565b5090565b60006123e76123e284613142565b61311d565b9050808382526020820190508285602086028201111561240657600080fd5b60005b8581101561245057813567ffffffffffffffff81111561242857600080fd5b808601612435898261257e565b85526020850194506020840193505050600181019050612409565b5050509392505050565b600061246d6124688461316e565b61311d565b90508281526020810184848401111561248557600080fd5b6124908482856133b1565b509392505050565b60006124ab6124a68461319f565b61311d565b9050828152602081018484840111156124c357600080fd5b6124ce8482856133b1565b509392505050565b6000813590506124e581613b83565b92915050565b600082601f8301126124fc57600080fd5b813561250c8482602086016123d4565b91505092915050565b60008135905061252481613b9a565b92915050565b60008135905061253981613bb1565b92915050565b60008151905061254e81613bb1565b92915050565b600082601f83011261256557600080fd5b813561257584826020860161245a565b91505092915050565b600082601f83011261258f57600080fd5b813561259f848260208601612498565b91505092915050565b6000813590506125b781613bc8565b92915050565b6000602082840312156125cf57600080fd5b60006125dd848285016124d6565b91505092915050565b600080604083850312156125f957600080fd5b6000612607858286016124d6565b9250506020612618858286016124d6565b9150509250929050565b60008060006060848603121561263757600080fd5b6000612645868287016124d6565b9350506020612656868287016124d6565b9250506040612667868287016125a8565b9150509250925092565b6000806000806080858703121561268757600080fd5b6000612695878288016124d6565b94505060206126a6878288016124d6565b93505060406126b7878288016125a8565b925050606085013567ffffffffffffffff8111156126d457600080fd5b6126e087828801612554565b91505092959194509250565b600080604083850312156126ff57600080fd5b600061270d858286016124d6565b925050602061271e85828601612515565b9150509250929050565b6000806040838503121561273b57600080fd5b6000612749858286016124d6565b925050602061275a858286016125a8565b9150509250929050565b60006020828403121561277657600080fd5b60006127848482850161252a565b91505092915050565b60006020828403121561279f57600080fd5b60006127ad8482850161253f565b91505092915050565b6000602082840312156127c857600080fd5b60006127d6848285016125a8565b91505092915050565b600080604083850312156127f257600080fd5b6000612800858286016125a8565b925050602083013567ffffffffffffffff81111561281d57600080fd5b612829858286016124eb565b9150509250929050565b61283c8161333d565b82525050565b61284b8161334f565b82525050565b600061285c826131e5565b61286681856131fb565b93506128768185602086016133c0565b61287f8161358c565b840191505092915050565b6000612895826131f0565b61289f818561320c565b93506128af8185602086016133c0565b6128b88161358c565b840191505092915050565b60006128ce826131f0565b6128d8818561321d565b93506128e88185602086016133c0565b80840191505092915050565b60008154612901816133f3565b61290b818661321d565b9450600182166000811461292657600181146129375761296a565b60ff1983168652818601935061296a565b612940856131d0565b60005b8381101561296257815481890152600182019150602081019050612943565b838801955050505b50505092915050565b600061298060328361320c565b915061298b8261359d565b604082019050919050565b60006129a360258361320c565b91506129ae826135ec565b604082019050919050565b60006129c6601c8361320c565b91506129d18261363b565b602082019050919050565b60006129e960248361320c565b91506129f482613664565b604082019050919050565b6000612a0c60198361320c565b9150612a17826136b3565b602082019050919050565b6000612a2f602c8361320c565b9150612a3a826136dc565b604082019050919050565b6000612a52605e8361321d565b9150612a5d8261372b565b605e82019050919050565b6000612a75600d8361321d565b9150612a80826137a0565b600d82019050919050565b6000612a9860388361320c565b9150612aa3826137c9565b604082019050919050565b6000612abb602a8361320c565b9150612ac682613818565b604082019050919050565b6000612ade60298361320c565b9150612ae982613867565b604082019050919050565b6000612b01602e8361320c565b9150612b0c826138b6565b604082019050919050565b6000612b2460028361321d565b9150612b2f82613905565b600282019050919050565b6000612b4760208361320c565b9150612b528261392e565b602082019050919050565b6000612b6a60318361320c565b9150612b7582613957565b604082019050919050565b6000612b8d602c8361320c565b9150612b98826139a6565b604082019050919050565b6000612bb0602f8361320c565b9150612bbb826139f5565b604082019050919050565b6000612bd3600a8361321d565b9150612bde82613a44565b600a82019050919050565b6000612bf660218361320c565b9150612c0182613a6d565b604082019050919050565b6000612c19601d8361321d565b9150612c2482613abc565b601d82019050919050565b6000612c3c60318361320c565b9150612c4782613ae5565b604082019050919050565b6000612c5f60258361320c565b9150612c6a82613b34565b604082019050919050565b612c7e816133a7565b82525050565b6000612c9082846128c3565b915081905092915050565b6000612ca782856128c3565b9150612cb382846128c3565b91508190509392505050565b6000612ccb82866128c3565b9150612cd782856128c3565b9150612ce382846128c3565b9150819050949350505050565b6000612cfc82876128f4565b9150612d0882866128c3565b9150612d1482856128f4565b9150612d2082846128c3565b9150612d2b82612a68565b915081905095945050505050565b6000612d4482612bc6565b9150612d5082856128c3565b9150612d5b82612a45565b9150612d6782846128c3565b9150612d7282612b17565b91508190509392505050565b6000612d8982612c0c565b9150612d9582846128c3565b915081905092915050565b6000602082019050612db56000830184612833565b92915050565b6000608082019050612dd06000830187612833565b612ddd6020830186612833565b612dea6040830185612c75565b8181036060830152612dfc8184612851565b905095945050505050565b6000604082019050612e1c6000830185612833565b612e296020830184612c75565b9392505050565b6000602082019050612e456000830184612842565b92915050565b60006020820190508181036000830152612e65818461288a565b905092915050565b60006040820190508181036000830152612e87818561288a565b90508181036020830152612e9b818461288a565b90509392505050565b60006060820190508181036000830152612ebe818661288a565b9050612ecd6020830185612c75565b612eda6040830184612833565b949350505050565b60006020820190508181036000830152612efb81612973565b9050919050565b60006020820190508181036000830152612f1b81612996565b9050919050565b60006020820190508181036000830152612f3b816129b9565b9050919050565b60006020820190508181036000830152612f5b816129dc565b9050919050565b60006020820190508181036000830152612f7b816129ff565b9050919050565b60006020820190508181036000830152612f9b81612a22565b9050919050565b60006020820190508181036000830152612fbb81612a8b565b9050919050565b60006020820190508181036000830152612fdb81612aae565b9050919050565b60006020820190508181036000830152612ffb81612ad1565b9050919050565b6000602082019050818103600083015261301b81612af4565b9050919050565b6000602082019050818103600083015261303b81612b3a565b9050919050565b6000602082019050818103600083015261305b81612b5d565b9050919050565b6000602082019050818103600083015261307b81612b80565b9050919050565b6000602082019050818103600083015261309b81612ba3565b9050919050565b600060208201905081810360008301526130bb81612be9565b9050919050565b600060208201905081810360008301526130db81612c2f565b9050919050565b600060208201905081810360008301526130fb81612c52565b9050919050565b60006020820190506131176000830184612c75565b92915050565b6000613127613138565b90506131338282613425565b919050565b6000604051905090565b600067ffffffffffffffff82111561315d5761315c61355d565b5b602082029050602081019050919050565b600067ffffffffffffffff8211156131895761318861355d565b5b6131928261358c565b9050602081019050919050565b600067ffffffffffffffff8211156131ba576131b961355d565b5b6131c38261358c565b9050602081019050919050565b60008190508160005260206000209050919050565b600081519050919050565b600081519050919050565b600082825260208201905092915050565b600082825260208201905092915050565b600081905092915050565b6000613233826133a7565b915061323e836133a7565b9250827fffffffffffffffffffffffffffffffffffffffffffffffffffffffffffffffff03821115613273576132726134d0565b5b828201905092915050565b6000613289826133a7565b9150613294836133a7565b9250826132a4576132a36134ff565b5b828204905092915050565b60006132ba826133a7565b91506132c5836133a7565b9250817fffffffffffffffffffffffffffffffffffffffffffffffffffffffffffffffff04831182151516156132fe576132fd6134d0565b5b828202905092915050565b6000613314826133a7565b915061331f836133a7565b925082821015613332576133316134d0565b5b828203905092915050565b600061334882613387565b9050919050565b60008115159050919050565b60007fffffffff0000000000000000000000000000000000000000000000000000000082169050919050565b600073ffffffffffffffffffffffffffffffffffffffff82169050919050565b6000819050919050565b82818337600083830152505050565b60005b838110156133de5780820151818401526020810190506133c3565b838111156133ed576000848401525b50505050565b6000600282049050600182168061340b57607f821691505b6020821081141561341f5761341e61352e565b5b50919050565b61342e8261358c565b810181811067ffffffffffffffff8211171561344d5761344c61355d565b5b80604052505050565b6000613461826133a7565b91507fffffffffffffffffffffffffffffffffffffffffffffffffffffffffffffffff821415613494576134936134d0565b5b600182019050919050565b60006134aa826133a7565b91506134b5836133a7565b9250826134c5576134c46134ff565b5b828206905092915050565b7f4e487b7100000000000000000000000000000000000000000000000000000000600052601160045260246000fd5b7f4e487b7100000000000000000000000000000000000000000000000000000000600052601260045260246000fd5b7f4e487b7100000000000000000000000000000000000000000000000000000000600052602260045260246000fd5b7f4e487b7100000000000000000000000000000000000000000000000000000000600052604160045260246000fd5b6000601f19601f8301169050919050565b7f4552433732313a207472616e7366657220746f206e6f6e20455243373231526560008201527f63656976657220696d706c656d656e7465720000000000000000000000000000602082015250565b7f4552433732313a207472616e736665722066726f6d20696e636f72726563742060008201527f6f776e6572000000000000000000000000000000000000000000000000000000602082015250565b7f4552433732313a20746f6b656e20616c7265616479206d696e74656400000000600082015250565b7f4552433732313a207472616e7366657220746f20746865207a65726f2061646460008201527f7265737300000000000000000000000000000000000000000000000000000000602082015250565b7f4552433732313a20617070726f766520746f2063616c6c657200000000000000600082015250565b7f4552433732313a206f70657261746f7220717565727920666f72206e6f6e657860008201527f697374656e7420746f6b656e0000000000000000000000000000000000000000602082015250565b7f222c20226465736372697074696f6e223a202272616e646f6d6c792067656e6560008201527f726174656420776f726420696e20612070696374757265222c2022696d61676560208201527f223a2022646174613a696d6167652f7376672b786d6c3b6261736536342c0000604082015250565b7f3c2f746578743e3c2f7376673e00000000000000000000000000000000000000600082015250565b7f4552433732313a20617070726f76652063616c6c6572206973206e6f74206f7760008201527f6e6572206e6f7220617070726f76656420666f7220616c6c0000000000000000602082015250565b7f4552433732313a2062616c616e636520717565727920666f7220746865207a6560008201527f726f206164647265737300000000000000000000000000000000000000000000602082015250565b7f4552433732313a206f776e657220717565727920666f72206e6f6e657869737460008201527f656e7420746f6b656e0000000000000000000000000000000000000000000000602082015250565b7f45524337323155524953746f726167653a2055524920736574206f66206e6f6e60008201527f6578697374656e7420746f6b656e000000000000000000000000000000000000602082015250565b7f227d000000000000000000000000000000000000000000000000000000000000600082015250565b7f4552433732313a206d696e7420746f20746865207a65726f2061646472657373600082015250565b7f45524337323155524953746f726167653a2055524920717565727920666f722060008201527f6e6f6e6578697374656e7420746f6b656e000000000000000000000000000000602082015250565b7f4552433732313a20617070726f76656420717565727920666f72206e6f6e657860008201527f697374656e7420746f6b656e0000000000000000000000000000000000000000602082015250565b7f4552433732314d657461646174613a2055524920717565727920666f72206e6f60008201527f6e6578697374656e7420746f6b656e0000000000000000000000000000000000602082015250565b7f7b226e616d65223a202200000000000000000000000000000000000000000000600082015250565b7f4552433732313a20617070726f76616c20746f2063757272656e74206f776e6560008201527f7200000000000000000000000000000000000000000000000000000000000000602082015250565b7f646174613a6170706c69636174696f6e2f6a736f6e3b6261736536342c000000600082015250565b7f4552433732313a207472616e736665722063616c6c6572206973206e6f74206f60008201527f776e6572206e6f7220617070726f766564000000000000000000000000000000602082015250565b7f4d696e746564206d6f72652074686520616c6c6f776564206e756d626572206f60008201527f66204e4654000000000000000000000000000000000000000000000000000000602082015250565b613b8c8161333d565b8114613b9757600080fd5b50565b613ba38161334f565b8114613bae57600080fd5b50565b613bba8161335b565b8114613bc557600080fd5b50565b613bd1816133a7565b8114613bdc57600080fd5b5056fe416e204e465420772f20494420257320686173206265656e206d696e74656420746f2025734142434445464748494a4b4c4d4e4f505152535455565758595a6162636465666768696a6b6c6d6e6f707172737475767778797a303132333435363738392b2fa2646970667358221220ea7c376b7aefa76a5e38f059c40a470253fbbcb5a98ca893668639a7300e022c64736f6c634300080400333c73766720786d6c6e733d27687474703a2f2f7777772e77332e6f72672f323030302f73766727207072657365727665417370656374526174696f3d27784d696e594d696e206d656574272076696577426f783d273020302033353020333530273e3c7374796c653e2e62617365207b2066696c6c3a2077686974653b20666f6e742d66616d696c793a2073657269663b20666f6e742d73697a653a20323470783b207d3c2f7374796c653e3c726563742077696474683d273130302527206865696768743d2731303025272066696c6c3d2727202f3e3c7465787420783d273530252720793d273530252720636c6173733d27626173652720646f6d696e616e742d626173656c696e653d276d6964646c652720746578742d616e63686f723d276d6964646c65273e",
  "linkReferences": {},
  "deployedLinkReferences": {}
}